:0200030004BB3C
:0200050004579E
:0200070003955F
:0200090003ED05
:03000000020242B7
:0C024200787FE4F6D8FD75817402028913
:10000E00C2AF80FE3212001285D00B75D008FAC234
:10001E008CE58A24D2F58AE58C34D4F58CD28CEC1E
:10002E00241AF8E6BC030274FFC39581B414004091
:10003E00CF7904786D16E608700BC2AFE630E10397
:10004E004418F6D2AF08D9EDEA8BD0D20022E50CD7
:10005E00FF23246EF80F0808EFB50C0610000343BB
:10006E008701BF04047F00786EE630E4E800E50CFB
:10007E00C39F5020050C7419250CF8E6FDA68108C7
:10008E00E6AE0CBE030274FFCDF8E86D60E008E644
:10009E00C0E080F6E50CD39F4027E50C241AF8E665
:1000AE00AE0CBE030274FFFD18E6CDF8E5816D605F
:1000BE0006D0E0F61880F5E50C2419C8F6150C806C
:1000CE00D3E50C23246EF87F04C2AFE630E00310B4
:1000DE00E20C7F0030E10730E3047F0854F4C2E7FE
:1000EE00C6D2AF54804207227819A68174036006E7
:0E00FE00FF0876FFDFFB7F04E4786DF608F65E
:10010C0008DFFA786E7630900003740193C0E0E457
:10011C0093C0E0438901758ACB758CD4D28CD2AF55
:04012C00D2A922032F
:1004D100EF1FAC0670011E4C600A7D027CEFDCFE52
:0404E100DDFC80ECD2
:0104E50022F4
:1004810000040004000416021802190618021904D7
:100491001D04180C11021102160614021604190487
:0304A100140CFF39
:10033B00204A230000F88CF8F3F95BF9B8FA15FAA8
:10034B0067FAB9FB04FB4BFB90FBCFFC10FC44FCA6
:10035B0079FCACFCDCFD09FD34FD5CFD82FDA6FDEA
:10036B00C8FDE8FE06FE22FE3DFE56FE6EFE85FE35
:0D037B009AFEAEFEC1FED3FEE4FEF4FF03C9
:1004BB007F011201307F021201307F03120130E401
:0604CB00FF1201B980FEE2
:1003ED001204A4E52190048193FFF460208F22056F
:1003FD0021E5219375F07DA4FFAEF01204D1052106
:10040D00C28C7F057E001204D1D28C80D3C28C7F2A
:06041D00031201B980CAC0
:100457000518E518AC177002051714FD7F01120285
:10046700CE7FF47E011204D1E518640A451770E0C7
:0A04770075A0FE7F011201B980D6C6
:1003950075A0FE7F647E001204D175A0FD7F647E8A
:1003A500001204D175A0FB7F647E001204D175A0F4
:1003B500F77F647E001204D175A0EF7F647E001282
:1003C50004D175A0DF7F647E001204D175A0BF7FC4
:1003D500647E001204D175A07F7F647E001204D173
:0803E50075A0FF12005C80FE10
:03000B00020423C9
:10042300C0E0C0D075D000C000C006E52225E0249E
:1004330023F8E6FE08E64E6012E52225E02423F8C1
:10044300E6FE08E6F58AEEF58CB2A5D006D000D01C
:04045300D0D0E032F3
:1004A4005389F0438901758A18758CFCC28DD28CEE
:0704B400D2A9D2AFC2B922A8
:0C0388000A0D3F065B4F666D7D077F6F1E
:1002CE00EF14B4080050549002E375F003A4C583F4
:1002DE0025F0C583730202FB0202FF020303020331
:1002EE000702030B02031302031B020323D2A48093
:1002FE000ED2A48012D2A48016D2A4801AC2A4D286
:10030E00A3D2A28016C2A4D2A3C2A2800EC2A4C23D
:10031E00A3D2A28006C2A4C2A3C2A2740D2DF8E677
:0D032E00F5807F647E001204D1E4F580228A
:10013000EFD3940340037FFF22746E2F2FF8E62045
:10014000E5F4C2AFE64430F6D2AFAE0CEEC39F503A
:10015000210E74192EF8E6F908E618BE030274FFA2
:10016000FDED69600909E71919F7090980F3161609
:1001700080DAEED39F400405810581EED39F4022B3
:1001800074192EF808E6F9EEB50C02A981180606D6
:10019000E6FDED6960091919E70909F71980F31EF1
:1001A00080D9EF2419F8E604F8EF2F0490000393A8
:0901B000F608EF2F93F67F002200
:1001B900EFD3940340037FFF22EF23246EF8E63048
:1001C900E5F4C2AFE6548CF6D2AFE50CB5070A7474
:1001D900192FF8E6F58102005C502E741A2FF8E603
:1001E900BF030274FFFD18E6F974192FF8FBE6FC4A
:1001F900E96C6008A805E7F61D1980F4A803A605AF
:100209001FE50CB507E37F0022741A2FF8E6FD18E5
:1002190086010F74192FF8A601088604E50CB507A5
:1002290002AC81ED6C60080D09A805E6F780F4E5DC
:090239000CB507DE89817F00226B
:10024E000200F6E493A3F8E493A34003F68001F2D0
:10025E0008DFF48029E493A3F85407240CC8C333B1
:10026E00C4540F4420C8834004F456800146F6DF80
:10027E00E4800B010204081020408090033BE47ED2
:10028E00019360BCA3FF543F30E509541FFEE49375
:10029E00A360010ECF54C025E060A840B8E493A33C
:1002AE00FAE493A3F8E493A3C8C582C8CAC583CA67
:1002BE00F0A3C8C582C8CAC583CADFE9DEE780BE1F
:010394000068
:00000001FF
